:020000041000EA
:1000000000B5324B212058609868022188439860DF
:10001000D860186158612E4B002199600221596106
:100020000121F02299502B49196001219960352056
:1000300000F044F80222904214D00621196600F024
:1000400034F8196E01211966002018661A6600F04E
:100050002CF8196E196E196E052000F02FF8012189
:100060000842F9D1002199601B49196000215960AB
:100070001A491B48016001219960EB211966A021F2
:10008000196600F012F800219960164914480160C1
:100090000121996001BC002800D000471248134993
:1000A000086003C880F30888084703B5996A0420EC
:1000B0000142FBD001200142F8D103BD02B5186610
:1000C0001866FFF7F2FF186E186E02BD00000240BE
:1000D000000000180000070000035F00212200005C
:1000E000F4000018222000A00001001008ED00E03C
:1000F00000000000000000000000000074B24E7A12
:1001000000200420F7010010C3010010C5010010F9
:10011000C1010010C1010010C1010010C101001097
:10012000C1010010C1010010C1010010C701001081
:10013000C1010010C1010010C9010010CB01001065
:10014000CD010010CD010010CD010010CD01001037
:10015000CD010010CD010010CD010010CD01001027
:10016000CD010010CD010010CD010010CD01001017
:10017000CD010010CD010010CD010010CD01001007
:10018000CD010010CD010010CD010010CD010010F7
:10019000CD010010CD010010CD010010CD010010E7
:1001A000CD010010CD010010CD010010CD010010D7
:1001B000CD010010CD010010CD010010CD010010C7
:1001C00000BE00BE00BE00BE00BE00BEEFF3058054
:1001D000103800BEF2EB8871189C0110389C011099
:1001E0003402001090A31AE700201F49086006C8D7
:1001F00081F3088810471D48006800282FD10DA4FE
:100200000ECC002902D000F012F8F9E71849194A7B
:10021000002000E001C19142FCD1174988471749ED
:1002200088471749884700BEFDE701C901C29A42C5
:10023000FBD37047389C0110C0000020281B002011
:10024000A0B601100000042000000420A0B6011098
:10025000001004200010042000000000704709482E
:1002600003F016FB0047000008ED00E0000000D09E
:10027000281B0020C0750020A52500106504001073
:10028000612500105756000006005250ABB3605372
:100290004882011006005250861C03025882011049
:1002A000060052505422A29D608201100500525057
:1002B000DE65F468A0B60110F8B5C04610B5064C6E
:1002C0002378002B07D1054B002B02D0044800E017
:1002D00000BF0123237010BD186200200000000041
:1002E000A8710110044B10B5002B03D0034904483A
:1002F00000E000BF10BDC046000000001C620020EE
:10030000A87101100120704710B504F05DFC0120B8
:1003100010BDF0B583B00E0017000193002400E07B
:100320000134BC4209D2355D280004F0DDFB854272
:10033000F6D00123019A13702700380003B0F0BDF6
:10034000F8B5DE4657464E464546E0B58B469246E2
:10035000994601F087FB06000F000023984609E04C
:1003600001230A9A137025E05B4642469854012304
:100370009C46E044D0451CD24B465B014A469B1A42
:100380009B004B44DB001C00DD1701F06BFB3200CF
:100390003B00121A8B411000190000196941002915
:1003A000DEDB04F015FC431CDED101230A9A137036
:1003B00000E0D0464046F0BCBB46B246A946A04647
:1003C000F8BD000010B5054C00222100044808F0DB
:1003D00053FE06F0DFFF207010BDC046947400206D
:1003E00098740020094B1B78002B09D0D0221206EC
:1003F00080218904516101225340044A13707047DF
:10040000D0221206802189049161F4E7B00B00200C
:1004100010B503781E221E21024807F0A3F8FFF74B
:10042000E1FF10BD686D0020F0B5C64600B5066856
:1004300047688468C5684169006903F071FD8046BA
:100440002000290003F06CFD04003000390003F0A7
:1004500067FD4246210006F017FFFFF7C3FF80BC8F
:10046000B846F0BD70B5C0B03B4B01933B4B009319
:100470003B4B3C4A0021012009F04EFE07F03CF8BE
:10048000394807F065F8192000F0C0F8D0231B06A2
:10049000802292045A6238AD02AC200009F09AFD25
:1004A0002B0007CC07C306CC06C3FA2078218000B6
:1004B00009F04CFE002801D040B070BD2B00002296
:1004C00011002BA809F05AFC2BAB284A28493DA85B
:1004D00009F09EFC07F0A0FA0200264E264B3DA92B
:1004E000300009F003FD0AF0BDFC0200234C244B50
:1004F0003DA9200009F0FAFC0AF09CFC0200214B07
:100500003DA9214809F0BEFC204B0093204A00235E
:100510002BA93FA809F01EFD2B0003222BA908A838
:1005200009F02EF93FA908A809F0C4F900250095A3
:10053000184B194A310008A809F082F90095174BA9
:10054000174A210008A809F07BF9164A002308A8D9
:1005500009F0DCFBF9E7C04641030010130300106B
:100560000503001009030010686D0020847D011050
:10057000A8710110B4740020B4710110706D0020D6
:10058000C4710110D471011098740020C5030010CB
:1005900000CA9A3B290400100062002011040010D8
:1005A0006C6D002000E1F50510B58300084A944603
:1005B00063441C6840226240C024144080225201DF
:1005C00013431C60C000034B9C466044416010BD57
:1005D00004C001400040014080000B4B9C46604439
:1005E00000290DD00823002A0CD0042213430268EE
:1005F00053400C2213408022520110430360704785
:100600000023F0E70022F1E704C0014010B5012308
:100610008340D0221206936293610521FFF7C4FF45
:1006200010BD0000034B1B6802201840431E984178
:10063000C0B2704700C00640EFF3108072B6034BA3
:100640001B68002BFBD0BFF35F8F70472C0100D0DD
:10065000BFF35F8F024B00221A6080F3108870474F
:100660002C0100D0F8B506000C001500FFF7E4FFE0
:10067000E308F718F15C07222240012393400B4264
:1006800005D1DBB20B433B70FFF7E2FFF8BD210061
:10069000280002F003F8F0B583B0060001911400C1
:1006A0001F00FFF7C9FF00E00134BC420CD8E3088B
:1006B000F518F35C0721214001228A401A42F3D148
:1006C000D2B21A432A7001E001246442FFF7C0FF4E
:1006D000002C02DB200003B0F0BD019B002BF9D001
:1006E000089801F0DBFF0000002307E0054A9A1894
:1006F0009200BFF35F8F0021116001331F2BF5D9EA
:100700007047C04640000034054A1078431CDBB2F5
:100710001370172B02D9130010221A707047C046AD
:10072000B10B002000B583B00100044B00931F23E0
:1007300018220348FFF7AFFF03B000BDE4710110BA
:10074000F4680020074B9B68103080001950BFF3FD
:100750005F8FBFF35F8F044B0021196082F3108815
:100760007047C04600ED00E0240100D010B5091A22
:10077000081F0A4B9C466144094A914208D8C307A6
:1007800006D440104005400D064B184380B210BD02
:10079000054B064AA321064801F0E6FEFC070000CF
:1007A000FE0F000000E0FFFF007201108C740110CA
:1007B0003072011010B5091A04394C08090B08D120
:1007C0004905490D064A11430180064B23434380E6
:1007D00010BD054B054AAB21054801F0C5FEC046DA
:1007E00000F0FFFF00F8FFFF8C7201106074011031
:1007F0003072011001238340034A10681840431EE1
:100800009841C0B27047C04600E100E0002904D022
:10081000034B1860034B18607047034B1860FBE7ED
:1008200080E200E000E100E080E100E010B501239B
:1008300083401800FFF7EAFF10BD0000012383404A
:10084000014A13607047C04600E200E0024B9B681B
:1008500010308000C058704700ED00E010B5FFF781
:10086000F5FF002805D0054BC01A2F2803D801201A
:1008700010BD0020FCE70020FAE7C046B40B0020C2
:1008800070B504000D00EFF3108672B60C4B1B68B8
:10089000002BFBD0BFF35F8F2000FFF7D7FF094B82
:1008A000984201D0A84205D1320029002000FFF76C
:1008B00049FF70BD044B054A8621054801F054FEEE
:1008C000240100D0CD0100109C720110C0740110F1
:1008D00030720110F0B5DE4657464E464546E0B54B
:1008E00089B0814601911500EFF3108A72B6744BFE
:1008F0001B68002BFBD0BFF35F8F724B0027DF57C5
:10090000002F40DB7C00E419A4006F482418062265
:10091000A2566C4B1A706D4B9A684B4610339B0075
:10092000D35898461E001B1A2F2B38D9684B984570
:100930002FD105AE674B33807B009B46D8198000D2
:10094000614B9846404402306349FFF70FFF7080C7
:10095000624BB380FF23B371F571019B07935F4432
:10096000BF0047440ECE0EC701231C43A04652468B
:1009700041464846FFF7E6FE09B0F0BCBB46B2462A
:10098000A946A046F0BD564B564AD721564801F01D
:10099000EBFD564B534ADE21534801F0E5FDC043C1
:1009A00040440C2102F0C8FF002912D101239E43CC
:1009B000B34633000026DA79AA4211D906215956E6
:1009C00000290CDB4A00521892001E003E4B9B1877
:1009D000F1E7474B434AEA21434801F0C5FD1E00B9
:1009E000002E3AD005AB434A1A80813A5A8006233A
:1009F000F3560293002B17DA3F4805AB9B469880CD
:100A0000029A9A71DD71019A0792301D2100FFF759
:100A1000ADFEB080B7717B00DB199B002A4FFF1839
:100A20005B4607CB07C7A2E77800C0198000264BBA
:100A3000C0180430321DB388D90A1C2907D15B05C0
:100A40005915023149005118FFF790FED5E72B4B9D
:100A50002B4AB121244801F087FD05AE1D4B3380A0
:100A60007B000293D8198000174A90460200424446
:100A70000392901C1849FFF779FE7080039A101DAD
:100A80005946FFF773FEB0801E4B5A464146521A34
:100A9000524153431B0DB371F571019A0792029BAA
:100AA0009C466744BF0047440ECE0EC7114B5A46C2
:100AB0001380813B538001231C43A04657E7C04667
:100AC000240100D0B7750020B40B002000ED00E039
:100AD000CD01001000A1FFFFE40B002001BDFFFFCE
:100AE000D4720110A874011030720110FC72011050
:100AF000247301100148000001BD0000987301102B
:100B000098740110AAAA0000F0B5CE46474680B5F9
:100B100083B006000D00EFF3108872B6564B1B68C9
:100B2000002BFBD0BFF35F8F544B9A683400103416
:100B3000A300D758524B9F4207D0AF4200D198E054
:100B40000197504BFB1A2F2B09D942463900300030
:100B5000FFF7F8FD03B0C0BCB946B046F0BD3000A9
:100B6000FFF748FE814600213000FFF75FFEBFF32C
:100B70005F8FEFF30581002901D08C4211D1012351
:100B8000019C9C430022A368AB4212D00622A256CD
:100B9000002A0DDB53009B189B002200394CE418FF
:100BA000F1E73621384B394AFF31394801F0DCFC96
:100BB0002200AB4256D106256557002D38DB6B006D
:100BC0005B199A002F4B9B189A68A260DA79E27140
:100BD00006229A56A2719B795BB2002B0FDA2D4840
:100BE000A0806B005B199B00264AD3182A4A117813
:100BF0009971157049463000FFF718FEA5E7201DD2
:100C00006B005B199B001F4A9B181A1D9B88D90A11
:100C10001C2907D15B055B15023359005118FFF7FA
:100C2000A5FDDDE71D4B1E4AB121194801F09CFCD2
:100C3000002912D1002A0ED0FF239371194B938003
:100C4000154A1378A371184B0E49641A6441634323
:100C50001B0D1370CEE70A4FF2E7201D1349FFF773
:100C6000A9FDC7E76A21124B084AFF31084801F085
:100C70007BFC034F69E7C046240100D000ED00E093
:100C8000CD010010B40B0020B07301107874011076
:100C90003072011001BD0000B7750020987301107B
:100CA0009874011001BDFFFFAAAA0000EE0B0020FE
:100CB000E473011070B5012101432E4BCB1A2F2B89
:100CC00028D8EFF30583002B2BD0EFF3108C72B6EE
:100CD000294A1268002AFBD0BFF35F8F274A04001D
:100CE000244D641B64416243120D54B2244A92683D
:100CF0009B00D2588A421BD00022032A32D85300CC
:100D00009B189B001B49CB189B795BB2A3421FD059
:100D10000132F2E7C7211B4B1B4A49001B4801F077
:100D200023FC92211A4B184AFF31184801F01CFC91
:100D3000134A92681749D150174B1A7882711C7068
:100D4000BFF35F8F0C4B00221A608CF3108870BDCC
:100D50000D005300991889006918FF268E710F4AFB
:100D60008A80E9E7D1210E4B074A4900074801F084
:100D7000FBFBC046B40B0020240100D0AAAA00004F
:100D800000ED00E0EC7301104474011030720110AA
:100D900014740110CD010010B775002001BDFFFFD4
:100DA000207401100022044B02E0044902C3013206
:100DB000072AFAD97047C04600E400E080808080AE
:100DC00000B583B00100064B0093052300220548BF
:100DD000FFF761FC002801DB1F23181A03B000BDD8
:100DE00028740110BC750020024B9C4661448900A8
:100DF000016070474000003410B50400FFF784FC28
:100E000001002000FFF7F0FFFF232371BFF35F8F86
:100E100010BD10B50400FFF777FC01002000FFF7BC
:100E2000E3FFFF23237100236371BFF35F8F10BDC6
:100E3000034B9C46614489000160BFF35F8F70479C
:100E40004000003410B504000120FFF76BFC0100E6
:100E50002000FFF7EDFF10BD70B505000C00080085
:100E600000F000FF0949200000F040FEFFF74CFCB5
:100E7000074B9C466044800068602C75D0231B069D
:100E80001B786B75A400034BE55070BD9D110010DD
:100E900040000034287200200A4B1A68EFF31081DA
:100EA00072B61368002BFCD0BFF35F8F054B1B6835
:100EB000BFF35F8F00221A6081F3108840BF0020CB
:100EC000002170479074002010B5002922D00368DB
:100ED0001B7B99421ED8174B9C46614409018368CD
:100EE0009C4661440C684968002A19D003681B7B42
:100EF0009A4215D883680F488446624412019A18B2
:100F000010685368020001208B4201D80ED00020E7
:100F1000C0B210BD084B094A3C21094801F024FB2E
:100F2000054B064A3C21064801F01EFBA242EFD8C1
:100F3000EDE7C046FFFFFF0FA876011028790110EA
:100F40005476011010B500291ED0037B99421BD89E
:100F50004B005B18033B0468A4466344002919D086
:100F6000002A1DD0914221D0002A25D0047BA24224
:100F700022D804685000801803382018817019782E
:100F800000291FD11A7010BD104B114A6821114859
:100F900001F0EAFA104B114A6F310E4801F0E4FA01
:100FA0000F4B0E4A70210B4801F0DEFA0D4B0B4A35
:100FB0007121084801F0D8FA044B054A6821054818
:100FC00001F0D2FA41701A70DDE7C046CC7601100C
:100FD00094790110E87601105077011070790110B2
:100FE0005C7701106877011070B506000D001400E1
:100FF000002914D0002A14D080687368984700280C
:1010000006D0220029003000FFF79CFF280007E0EF
:101010002A0021003000FFF795FF200000E01000BB
:1010200070BD0800FCE70000F0B583B00500009239
:1010300001930AAB1C780BAB1F78002C26D00368F9
:101040005A7B944207D10123002B19D1002C3BD1AC
:10105000200003B0F0BD002C0CD01A7B944209D8BC
:101060001A6863001B19033BD3189B78002BEBD045
:101070000123E9E73E4B3F4A68213F4801F074FAFB
:101080003E4B3F4A67213F4801F06EFA03689C7B64
:10109000002CDBD012D01A7B94420FD862001219B8
:1010A000033A19688C46624451789973002900D13B
:1010B000D9730023937053701370C7E72C4B2D4ADC
:1010C00068212D4801F050FA002C3AD02B681B7B88
:1010D0009C4236D82C4BE3181B01AA689446634403
:1010E000009A1A60019A5A60089A9A60099ADA601E
:1010F0002E68002C2BD030D0337B9C422DD863003F
:101100001B19033B32689446634400229A705A705C
:101110001A70717B22003000FFF766FF7073844203
:1011200000D095E7287D009A019B00F027FD061E60
:1011300001D0002F17D00C9B002B00D188E71E7028
:1011400086E7124B124A3C210E4801F00DFA114B72
:10115000114AA521084801F007FA054B054A682104
:10116000054801F001FA2868210000F03FFFE2E79E
:10117000CC76011094790110E87601108077011087
:10118000A079011054760110FFFFFF0FA87601101F
:10119000287901105076011084790110F0B5DE46EF
:1011A00057464E464546E0B58BB00990002308935C
:1011B0008200B54BD658370052E0B44BB44A3F21B9
:1011C000B44801F0D1F9B44BB44A3C21B44801F021
:1011D000CBF9002901D1002869D10021404600F057
:1011E000FBFEA04219D12A686B6806920793AB6890
:1011F0009846EB689A464346002B14D0002C18D032
:101200003B681B7B9C4214D8631EFA68D35C08932E
:101210001B0218433861002015E0A24BA24A8E2120
:101220009F4801F0A1F9A14B9F4A92219C4801F0EF
:101230009BF9994B9E4A4121994801F095F9002369
:101240009A46984600207B68BFF35F8F00221A60A1
:1012500086F310884346002B32D1002800D10CE1E0
:1012600000F000FC02000B1EA7DB0020002106900E
:1012700007917868EFF3108672B601680029FCD0F8
:10128000BFF35F8F396888464C7B002CD7D09AD04B
:10129000097B8C4297D8874965182D01B9688C461F
:1012A000654428686968801A9941002991DD2A6897
:1012B0006B68099800F062FC00239A469846C2E7E2
:1012C000089B1B022343994651461800C04705005E
:1012D0000E007A68EFF3108B72B6136859424B41D7
:1012E000D9B2002BF9D1BFF35F8F002E1EDB002E89
:1012F00046DD3B69002B47D04B456DD100F0B2FB7A
:1013000002000B1E6EDB52197341002B70DB002BA9
:1013100072DB002104910131039102945146019145
:10132000414600913800FFF77FFE4CE03B69002BFF
:10133000DDD04B4514D1069A079B521BB341002BBD
:1013400014DB002B16DB0021049101310391029480
:1013500051460191414600913800FFF765FE32E0A9
:10136000554B514AA1214E4801F0FEF8012252424C
:10137000524BE6E7454B464A3F21464801F0F4F818
:10138000002E01D1002DB4D13B68002C50D05A7BE7
:10139000944237D1012100294AD1DA7B002A4DD16C
:1013A0009A7B002A03D1DA7B002A5AD19C73DC7322
:1013B000002C5CD03B681B7B9C4258D8FA68013CEF
:1013C000135D0133135500233B617A68BFF35F8FD0
:1013D00013608BF3108843E7374B334AA42130481E
:1013E00001F0C2F8294B2A4A3F212A4801F0BCF8F3
:1013F00001225242314B8AE7244B254A3F2125489E
:1014000001F0B2F8002C0DD01A7B94420AD8620089
:101410001219033A1868844662449278002ABAD0B6
:101420000121B8E7264B274A6821274801F09CF89C
:10143000264B274AF621244801F096F8002A0AD0C4
:10144000197B8A4207D851008A18033A19688C46DA
:1014500062445470A4E71A4B1A4A68211A4801F0F2
:1014600083F81C4B1A4AFB21174801F07DF80A4B00
:101470000F4A41210A4801F077F80BB0F0BCBB4697
:10148000B246A946A046F0BD287200204C75011056
:10149000F478011068750110A87601102879011000
:1014A00054760110A87701100C790110C077011053
:1014B0004C790110FFFFFF0FCC770110FFFFFF7F7A
:1014C000CC76011094790110E876011008780110AB
:1014D000607901102C78011010B50C4B5B68002B63
:1014E00004D00A210A48FFF77FFC10BD074C2300F7
:1014F000084A1021206800F07FFC032000F0A6FAC3
:1015000003212000FFF7A8FCEBE7C046FC0B0020FE
:1015100090740020C90E001010B5064B5B68002BBC
:1015200001D0044810BD044B044A5E21044801F078
:101530001BF8C046FC0B00204078011034790110E4
:1015400054760110F0B5DE4657464E464546E0B5A6
:101550008BB0804616001F00149B9A46159B994637
:1015600016AB1B789B461F2302AA944663440022B5
:101570001A702BE0002809D042461268127B904274
:1015800004D8421E4146C9688A5C41E0404B414A4A
:101590004121414800F0E8FF07984CE0361BAF417D
:1015A000002F07DB002F11DA3C4B3D4A3F213D481D
:1015B00000F0DAFF012676423B4FF3E7374B384A1B
:1015C0003F21384800F0D0FF002F4FDB43465A68D8
:1015D000EFF3108472B6136859424B41D9B20791A8
:1015E000002BF8D1BFF35F8F1F3302AA94466344E8
:1015F00004930023039302934B46019353460093B5
:1016000032003B004046FFF70FFD031EB2D102003F
:1016100041464968BFF35F8F00250D6084F3108851
:10162000002B29D01F2302A98C4663441B78002B72
:10163000B2D112021043002B20D05B46002B1DD0EC
:101640004946D04704000D0003000B431DD000297C
:10165000A4DB00F007FA06000F1EAFDB36196F415E
:10166000002FB1DA012676420F4FADE70B4B0C4A43
:101670003F210C4800F078FF012040420BB0F0BC45
:10168000BB46B246A946A046F0BD0798F6E7C0465D
:10169000A87601104C790110547601104C75011098
:1016A000F478011068750110FFFFFF7FF8B50400A2
:1016B000002900D162E04268EFF3108572B613682A
:1016C00058424341D8B2002BF9D1BFF35F8FCBB260
:1016D0002268567BB3421BD10120002848D02069E4
:1016E00088422BD0090AC9B2002B2ED02068007B7B
:1016F00083422AD8581EE668305C88422BD00020EE
:101700006368BFF35F8F00221A6085F31088F8BD0D
:10171000002B0DD0167BB3420AD85E00F618033EAC
:101720001768BC466644B678002ED6D00120D4E7B0
:10173000134B144A6821144800F016FF2C21134B58
:10174000134AFF31134800F00FFF134B134A412196
:10175000104800F009FF1900100000F047FC0028B5
:10176000CED199210E4B0A4A49000A4800F0FCFEEE
:1017700023698B42C4D100232361C1E70020C6E75F
:10178000CC76011094790110E8760110647801108C
:10179000DC78011054760110A87601104C79011004
:1017A00088780110407D7047F0B587B006000F00C3
:1017B000EFF30583002B1FD106246442E517A4191B
:1017C0007D418D4202D803D1844201D900240025F5
:1017D000002D14DB0494059500F044F902000B1E63
:1017E00013DBA41A9D41002D17DC14D03000390002
:1017F00000F044F907B0F0BD234800F04FFF234B41
:10180000234A3F21234800F0AFFE204B204A3F21CE
:10181000204800F0A9FE002CE8D0FFF77DFE002351
:10182000029301931C4B0093049A059BFFF78AFED9
:10183000002818DADAE7002300E00023002BD5D1D6
:10184000164B1A68EFF3108172B61368002BFCD0A8
:10185000BFF35F8F114B1B68BFF35F8F00221A60CD
:1018600081F3108820BF0499059A0D4B5B6A9A4258
:10187000E3D80B48806A884203D29A42DBD0012326
:10188000DCE70123DAE7C0468C7801104C750110C3
:10189000F478011068750110990E00109074002002
:1018A0000040054070B504000D0000F0DBF80200B8
:1018B0000B1E0ADB200029008018594100290ADB91
:1018C00000290CDBFFF770FF70BD084B084A3F2171
:1018D000084800F049FE012040420749F0E7034B69
:1018E000034A3F21034800F03FFEC0464C750110FB
:1018F000F478011068750110FFFFFF7F10B5FA2220
:1019000092000023002102F053FEFFF7CBFF10BD31
:1019100070B584B005000C00EFF30583002B1ED1D9
:10192000FFF7FAFD002302930193224B00932A0054
:101930002300FFF707FE061E23DD20BFFFF7ECFDA7
:101940003100FFF7B3FE1C4B5B6A9C422DD81A4A4C
:10195000926AAA422CD29C4225D0012026E0164B46
:101960005B6A994209D8144A926A824207D2994224
:1019700001D001201AE0002018E0002016E001202C
:1019800014E00D4B5B6A9C4209D80B4A926AAA424A
:1019900007D29C4201D0012008E0002006E0002090
:1019A00004E0012002E0002000E0002004B070BD4F
:1019B0000120FBE7990E00100040054070B5EFF3E1
:1019C00005801038EFF3108C72B61A4B1B68002B91
:1019D000FBD0BFF35F8F01221300834016494B6396
:1019E00016490B60164909780C00C440224214D0F5
:1019F000114A546A8200134D5259944206D3820010
:101A0000114C125999430E4B197007E00A4A031DF5
:101A10009B0099589950002200E00022BFF35F8F8D
:101A2000044B002119608CF31088002A00D09047E5
:101A300070BDC046280100D0004005403C70054004
:101A4000BB750020C8740020DC67002010B50100C1
:101A5000024A0348FEF706FE10BDC046B8790110E1
:101A6000B3750020044B5B6A034A906A1900536AFD
:101A70009942F9D17047C04600400540084B5B6A67
:101A800001E0074B5B6A8B42FBD301E0044B5B6ACE
:101A90008B4203D1024B9B6A8342F7D37047C04607
:101AA0000040054070B504000D00FFF7DBFF0200A9
:101AB0000B0020002900801859418B4202D804D124
:101AC000824202D901204042C117002902DBFFF700
:101AD000D5FF70BD024B034A3F21034800F044FD8F
:101AE0004C7501107C7A01106875011070B5040006
:101AF0000D00EFF3108672B61B4B1B68002BFBD05A
:101B0000BFF35F8F002D1CD02000FEF79FFE174B08
:101B100083420BD019002000FEF7B2FE0121200005
:101B2000FEF784FE0123A340114A1360A400114B69
:101B3000E550BFF35F8F0C4B00221A6086F31088CC
:101B400070BDA2000B4B0021D1500122A2400A49D6
:101B50000B7893430B7005492000FEF7D5FF002159
:101B60002000FEF763FEE4E7280100D0BD19001055
:101B700038600540DC670020BB750020F0B5DE460C
:101B800000B584B00400150001921E000293FFF717
:101B900069FF03958E4202D84ED185424CD9EFF3AE
:101BA000108B72B6274B1B68002BFBD0BFF35F8FE7
:101BB000254A17780125A540EBB23B431370234B10
:101BC0005D63221D92000199D150A2002049029824
:101BD00050501B6A2B4212D11C4B1B6C2B4208D05D
:101BE0000020BFF35F8F174B00221A608BF3108821
:101BF00023E0184B184AC521184800F0B5FCFFF740
:101C000031FF8E4214D802D1039B834210D80E4B71
:101C10001B78BB420ED00D4B1D625D631F2004403C
:101C20000123A3400E4A1360074B1F701E38D8E7EC
:101C30000020D6E70120D4E7012004B080BCBB46D9
:101C4000F0BDC046280100D0BB7500200040054013
:101C5000C8740020DC790110607A0110007A01104C
:101C600080E200E0EFF3108C72B60B4B1B68002B88
:101C7000FBD0BFF35F8F01238340084A13620849FA
:101C80000A789A430A70BFF35F8F034B00221A60F1
:101C90008CF310887047C046280100D000400540F2
:101CA000BB75002010B500291ED0037B99421BD8BC
:101CB0004B005B18033B0468A4466344002919D019
:101CC000002A1DD0914221D0002A25D0047BA242B7
:101CD00022D80468500080180338201881701978C1
:101CE00000291FD11A7010BD104B114A68211148EC
:101CF00000F03AFC104B114A6F310E4800F034FCF2
:101D00000F4B0E4A70210B4800F02EFC0D4B0B4A76
:101D10007121084800F028FC044B054A6821054859
:101D200000F022FC41701A70DDE7C046CC7601104D
:101D30009C7B0110E876011050770110887B011020
:101D40005C7701106877011070B506000D00140073
:101D5000002914D0002A14D080687368984700289E
:101D600006D0220029003000FFF79CFF280007E082
:101D70002A0021003000FFF795FF200000E010004E
:101D800070BD0800FCE7000010B500234373013369
:101D90008373037BC3730123027B9A4214D9002B04
:101DA0000CD0027B934209D85A00D218033A01683A
:101DB0008C4662440133DBB25370EDE70B4B0C4AA7
:101DC00068210C4800F0D0FB002A09D0924207D8C5
:101DD000016853009A18033A8A180023537010BD03
:101DE000024B034A6821034800F0BEFBCC76011089
:101DF0009C7B0110E876011010B50173426083608E
:101E0000FFF7C2FF10BD000070B50400081E00D12E
:101E100070BD002934D0237B994231D84B005B1828
:101E2000033B2268944663445A78002AF0D02DD0B0
:101E3000237B9A422AD853009B18033B21688C4687
:101E400063445D7800215970002825D0237B984297
:101E500022D843001B18033B21688C4663440021B1
:101E6000597001002000FFF76FFF060029002000D5
:101E7000FFF7CAFF020031002000FFF765FFC7E748
:101E8000084B094A6821094800F06EFB054B064AD9
:101E90006821064800F068FB024B034A68210348AA
:101EA00000F062FBCC7601109C7B0110E8760110FB
:101EB00070B505000C00160000292FD034D0037B2C
:101EC000994231D84B005B18033B02689446634447
:101ED0005A78002A2ED19A78002A31D11978FFF742
:101EE00093FF0300002E0AD0EA7B002A2ED1AA7BA2
:101EF000002A03D1EA7B002A3BD1AC73EC73002BA0
:101F00003DD1002C4FD02B7B9C424CD82B686100DC
:101F10000C19033C1C190023637070BD254B264A25
:101F20003821264800F020FB254B264A6821264808
:101F300000F01AFB254B204A3A21204800F014FB00
:101F4000234B1D4A3B211D4800F00EFB002A0AD0FE
:101F5000297B8A4207D851008A18033A29688C469F
:101F600062445470C3E7164B164A6821164800F0C5
:101F7000FBFA184B104A4221104800F0F5FA002BEA
:101F80000BD02A7B934208D843001B18033B2A68D6
:101F90009446634400229A70B3E7094B094A6821CA
:101FA000094800F0E1FA064B064A6821064800F0AD
:101FB000DBFAC046947A0110747B01109C7A011000
:101FC000CC7601109C7B0110E8760110F07A0110AC
:101FD000187B01102C78011070B504000A00457BB5
:101FE0002900FFF765FF6073280070BD70B504001D
:101FF000002967D0437B8B420ED0002911D0037B90
:1020000099420ED84B005B18033B0268D0188378C6
:10201000002B0CD1002056E00121FFF7DDFF01204D
:1020200051E0294B294A6821294800F09DFA002BEC
:1020300020D0227B93421DD85A00D318033B22683C
:10204000D2182568EB5C8B421AD0002B1BD0227B68
:10205000934218D85A00D318033B2268D2185378F9
:102060008B4216D0002BF0D11A4B1B4A6B211B4818
:1020700000F07AFA144B154A6821154800F074FAFA
:102080004378137007E0104B104A6821104800F0A5
:102090006BFA437853700023837043700122200051
:1020A000FFF706FF0200617B814205D02000FFF7A9
:1020B0004BFE6073012006E0094B074A7121074877
:1020C00000F052FA002070BDCC7601109C7B01100C
:1020D000E8760110207401105C7B01109C7A0110DD
:1020E0003C7B0110F8B5DE4657464E464546E0B506
:1020F00005000F0092460A9A934250D31A0E914659
:102100001E020A9A00233000494601F053FC804623
:102110006C006419A400304B9C466444636883429D
:1021200000D260602B1FDBB29B46012B3DD9C02340
:102130009B012343802212011A60AB00274A995861
:10214000002907D0506901F0F7FB431C5800C01864
:102150000338FDD253465A0123685A40E0231A40FF
:1021600080235B0123431A605A46012A28D9802321
:102170009B012343802212011A604346636042465A
:1021800000233000494601F015FCAD00134B5851B7
:102190000120F0BCBB46B246A946A046F8BD104B94
:1021A000104A3321104800F0DFF9012FBFD1C023BE
:1021B0009B01234303221A60A368DB07FCD5C9E710
:1021C0002168794003220A401A60A2680123BB40BB
:1021D0001342FAD0CBE7C0460080004008690020D7
:1021E000A87B01101C7C0110BC7B011030B583B0B2
:1021F0000C2000F011F9FEF715FA00280DD000238D
:1022000004E099002D4A2E4888500133092BF8D953
:102210002A4B2C4A5A6203B030BD2B4B00229A67DE
:1022200000F06CF9294B01221A60274B5B6C012BE3
:10223000FBD1274B03221A60234B9B6B012BFBD155
:10224000013300930433234A0121234800F054F85A
:1022500005230093214A0121214800F04DF8214B2C
:102260000093002202210420FFF73CFF1E4D009541
:102270002B00002201210520FFF734FF104C0094B1
:102280002300002200210720FFF72CFF00942300E9
:10229000002200210820FFF725FF0A4B00932300AE
:1022A000002200210920FFF71DFF00952B000022CE
:1022B00000210620FFF716FFADE7C04608690020A1
:1022C000006CDC021BB70000008000403CB0004006
:1022D00030B00040002F685900800240008C8647D3
:1022E00000C00240001BB700405973078000014B3B
:1022F000C058704708690020F0B5C64600B5040014
:102300000E0017001D00374801F016FB8046364BC3
:10231000FA18364B9A4239D80100380001F00CFB0C
:102320000200103A98235B009A4235D86B1E062BA8
:1023300038D8069B013B062B34D83F09474537D395
:102340002D04069B1A0315432368002B36DB284B0C
:102350009C4244D080225201264B1A60264B1A60C0
:10236000264B9B6811009943FAD12660A060231D7B
:10237000C02292011A43212313602368002BFCDA48
:10238000E5600823136080BCB846F0BD1C4B1D4AB5
:1023900011211D4800F0E8F81C4B1A4A19211A486F
:1023A00000F0E2F81A4B174A1C21174800F0DCF83D
:1023B000184B144A2321144800F0D6F822683F2312
:1023C0001340B342C3D1A3681B051B0D8342BED18A
:1023D000E368EE22D2021340AB42B8D1D3E78022A9
:1023E0009201B9E7001BB70080E84BD380F8A9320F
:1023F00000C0024000E0004000F0004000C000408B
:102400002C7C01106C7D01108C7C0110E87C01108B
:10241000047D0110507D011080239B000343014A7D
:10242000D362704700800540024B1A68024B5A6025
:102430007047C046EC7100200080054010B50200D6
:10244000164B8020C0051860154B164818600029EF
:102450000AD0154BE021C9041960002A09D1124B9A
:10246000802212061A6010BD0C4BE021C9041960CD
:10247000F3E753019B1A9800801800010B4B18607A
:1024800080235B04984202D3084B094A1A60FFF785
:10249000CBFF054B8022D2051A60E4E700B005406F
:1024A00008200140FCFF010000A00540EC71002065
:1024B000FFFFFF0010B5030010000C4A8024E40564
:1024C0001460002B0DD001221343094A094CD4613A
:1024D000094C5C401462516293620021FFF7AEFF29
:1024E00010BD034B0022DA61F7E7C04600B005409B
:1024F00000800540D3C007B02D3FF84F064BAA22FD
:1025000012011A602F22DA60044B054A1A60024B4E
:102510005B68002BFBDA704700400240006002401D
:1025200000B0FA0000BEFDE703000A4A1268002A64
:1025300008D0084A1068C318074A9A4206D3054AC9
:1025400013607047034A05491160F2E701204042D9
:10255000F7E7C046D46D002000000420C0750020BD
:1025600010B5FFF7DFFF000010B582B00C001900B6
:10257000002A0CD0084B002A0BD0019200932300B4
:102580000200064802F014FB0120FFF7CBFF044BCA
:10259000F1E7034AF1E7C046787D0110887D01101C
:1025A000847D011070B52B4B2B4A1A602B4B2C4AA3
:1025B0001A602C4B9A682A4B9343FAD12A4C01E0BB
:1025C00008CC9847294B9C42FAD3FFF70FFE234BC8
:1025D000274A1A60234B9B68DB43DB01FAD1254B6A
:1025E00040229A675A671A67DA66234C09E0234B40
:1025F000234A87212348FFF7B7FF2000FEF7FCFBA3
:102600000834214B9C4209D22368002BF5D0012BC2
:10261000EDD12000FEF7FDFB0834F2E71B4CA1686A
:102620001B4DC022280002F057F9A560EFF3058387
:10263000002B00D000BEFEF757F8FEF7B3FBFEF705
:102640004BFF144C01E008CC9847134B9C42FAD343
:1026500070BDC04600E00040BFCDFBFE00F0004072
:10266000FE7F3C0000C00040041B0020141B002023
:10267000FFFFFF0100F00140FC1A0020B87D0110AF
:102680004C7E0110D87D0110041B002000ED00E0FD
:1026900000000020141B0020281B00200FB400B5F0
:1026A00083B0084802F054FA049B002B07D005A918
:1026B0000191180002F05CFA034802F049FA012087
:1026C000FFF730FF387E0110487E01109A4200D299
:1026D00088547047704710B5002802D00B684968CD
:1026E000984710BD0100002007E083001B185B0025
:1026F000501C08601078C01830380A681378303BD6
:10270000DBB2092BF1D97047F0B5DE4657464E468D
:102710004546E0B583B093461F000C9B9A460D9C3E
:102720000E9B99460F9B9B0703D0B8460F000600EF
:1027300022E00192A34688464E46B9460700B442BD
:1027400007D2551C4B4641462020B84701342A0089
:10275000F5E73D004F465C46019B9B46B146464629
:10276000B84637002E0007E0013C551C5346185D63
:1027700043463900B0472A00002CF5D135003E0011
:1027800047460F9B9B0707D4100003B0F0BCBB4625
:10279000B246A946A046F0BDB0464E46B9462F0007
:1027A0005D46531BB342EFD2541C4B46414620209A
:1027B000B8472200F5E7F0B5CE46474680B585B06C
:1027C000944698460C9D0D9C0EAB1B789946109A2A
:1027D000119B129EB7071CD4002B0CD0F7070AD50B
:1027E0004F46002F02D10C37374204D0013B02E0A4
:1027F00030272F550134944201D21F2CF8D9F70706
:1028000007D59C4205D21F2C03D830272F55013401
:10281000F5E7F70615D5770505D4002C03D09442CB
:1028200024D09C4222D00F9A102A2BD00F9A102A23
:1028300030D00F9A022A35D01F2C02D830222A55C8
:1028400001341F2C05D84A46002A31D02D222A55A2
:102850000134039602930194009543466246FFF7C4
:1028600053FF05B0C0BCB946B046F0BD621E012C96
:1028700006D00F9F102F01D01400D4E7023CD2E7FE
:102880001400D0E7B206D1D41F2CCFD878222A5515
:102890000134D1E7B206CCD51F2CCAD858222A550C
:1028A0000134C9E71F2CC7D860322A550134C3E769
:1028B000720703D52B222A550134CAE73207C8D53F
:1028C00020222A550134C4E7F0B5DE4657464E466D
:1028D0004546E0B593B081468A46089209931CAB01
:1028E00010CB1B789B461E9D219B9846002C03D144
:1028F000102342469A4390468023DB0046461E4002
:1029000042461A4212D0002C22D000260EE030336C
:10291000D9B2771C0AAB99552900200001F00CF8B8
:10292000AC4216D31F2F14D83E000400290020000B
:1029300001F002F8CBB2092BE9D94246920605D53F
:102940004121C918C9B20A39C9B2E2E76121F8E7E1
:10295000270043460693209B05931F9B04930395F2
:102960005B46029301970AAB0093099B089A514674
:102970004846FFF720FF13B0F0BCBB46B246A9465D
:10298000A046F0BDF0B5DE4657464E464546E0B59A
:1029900095B0089009910A920B931E9E1F9C20AB44
:1029A0001B789B46229B9946239D269B9A46330083
:1029B000234303D1103352469A4392468023DB00CF
:1029C00057461F4052461A4219D0330023432DD098
:1029D000002714E03033DAB27B1C98460CABDA5592
:1029E0004A462B003000210000F0E4FFA5421FD82A
:1029F00019D043461F2B1BD8474606000C004A46F9
:102A00002B003000210000F0D5FFD3B2092BE1D913
:102A10005246920605D54122D218D2B20A3AD2B213
:102A2000DAE76122F8E7B145E3D901E000239846EF
:102A300053460693259B0593249B04934B4603938F
:102A40005B460293434601930CAB00930B9B0A9A9F
:102A500009990898FFF7AFFE15B0F0BCBB46B24627
:102A6000A946A046F0BD0000F0B5DE4657464E46EA
:102A70004546E0B591B083468A460C9298461A9C2A
:102A800008941B9D099522002B002000290001F0CD
:102A90001CFA002800D0E5E001225242D74B20006A
:102AA000290001F00DFA002800D0DBE0012252429B
:102AB000D34B2000290001F0EDF9002800D0D1E02F
:102AC00000220023089E3000099D290001F0E2F950
:102AD000002800D0DDE0089809990690079180232E
:102AE000DB001E9A1A400D921E9A1A4201D106234B
:102AF0001C930698079904000D000A000600024383
:102B000000D1D1E0080D4005400DBE4CA446604404
:102B10000A03120BBC4B13431F0001F0E9F9BB4A37
:102B2000BB4B01F074F9BB4ABB4B01F049F90400FF
:102B30000D000022B94B3000390001F038F9B84AD5
:102B4000B84B01F064F902000B002000290001F0ED
:102B500037F901F0E5F9814601F0CAF904000D00EA
:102B6000B14AB24B01F053F90022B14B01F028F900
:102B700001F0D6F90600AF4AAF4B2000290001F062
:102B800046F904000D00300001F0B2F9AB4AAC4B3D
:102B900001F03DF902000B002000290001F007F9C7
:102BA00004000D0002000B0001F031F90A900B91B6
:102BB000A44BF31800261F0522002B00200029003B
:102BC00001F0FEF80E900F9122002B0000208021D2
:102BD000C90501F0ECF804000D0000229A4B0A9898
:102BE0000B9901F0F6F80022984B01F0E9F8020089
:102BF0000B000A980B9901F0ECF80022944B01F0BD
:102C0000DFF802000B000A980B9901F0E2F80200CD
:102C10000B002000290001F0D3F802000B000E98F1
:102C20000F9901F0D6F80022774B01F0C9F8320075
:102C30003B0001F0ECF806000F0004000D00069ABE
:102C4000079B01F03DF9002830D001235B429C46F0
:102C5000E14400227D4B3000390001F0BAF8040055
:102C60000D0023E01E9B04931D9B03931C9B02936A
:102C7000089A099B0092019343460C9A5146584684
:102C800000F0FCF811B0F0BCBB46B246A946A04625
:102C9000F0BD0023002406930794069680231B06AC
:102CA0009C46654407951AE7002399464B466333D3
:102CB000C62B1ED804261E9B1B0526D52B0023439E
:102CC0000FD0644A644B0698079901F0F1F8002888
:102CD00079D00022614B0698079901F0DBF80028B3
:102CE00071D01C9B4B4506DD4A46981A431E1C9327
:102CF00003E00526DFE700231C938023DB001E9AF8
:102D00001A431E920026002399461D9B9E4264D2C0
:102D10009F1B02231E9A1A400A921E9A134202D047
:102D2000002E00D000274B46002B07D022002B009E
:102D30000698079901F04DF80690079100220023AC
:102D40000898099901F0A6F8002848D1444B1E9A2A
:102D50001340049303971C9B0293069B079C0093CC
:102D6000019443460C9A5146584600F087F8002ECD
:102D700000D187E71E9B9B063DD54525441C434655
:102D8000020051462800D8474B46DA179B1853409B
:102D900005220592013E0496002203920A32029215
:102DA0004A46D00F019000934346220051465846B0
:102DB000FFF78AFD0A9B002B00D163E702005F4604
:102DC0000C9E1D9D54E01C9B002B9ED00D9B002B48
:102DD0009BD01C9B013B1C9397E7002799E7069C1F
:102DE000079D2200290080200006844661440B00D4
:102DF00006920793AAE76525C0E7C046FFFFEF7F6D
:102E0000FFFFEFFF01FCFFFF0000F03FFB799F5049
:102E10001344D33FB3C8608B288AC63F0000F83FF5
:102E200061436F63A787D23F71A379094F930A402B
:102E30000000E03F1655B5BBB16B0240EF39FAFE1A
:102E4000422EE63FFF03000000002C40000024401B
:102E5000000018402D431CEBE2361A3F80842E41BF
:102E6000FFF7FFFF541C434651462020B84722007D
:102E7000931BAB42F6D3100004E7C046F0B5DE4624
:102E800057464E464546E0B595B0069007919346A5
:102E90009946209F1E9A1F9B1000190001F015F8FB
:102EA000002831D101225242BF4B1E981F9900F0D9
:102EB000F1FF002837D101225242BC4B1E981F99C6
:102EC00000F0FEFF00283DD10022B94B1E981F994B
:102ED00000F0F6FF002850D10022B64B1E981F9933
:102EE00000F0D8FF002848D1002200231E981F9927
:102EF00000F0D0FF002850D100239846229B5B05AC
:102F000000D4B6E0002458E0229B0393219B029357
:102F100003230193A84B00934B465A460799069802
:102F2000FFF7F2FB0EE1229B0393219B0293042304
:102F30000193A24B00934B465A4607990698FFF718
:102F4000E3FBFFE00423229A1A4022990B4210D09F
:102F50009B4B002A0FD004222299039121990291C0
:102F6000019200934B465A4607990698FFF7CCFB0F
:102F7000E8E0944BEDE70322EEE7229B0493219BCC
:102F8000039302971E9B1F9C009301944B465A4645
:102F900007990698FFF768FDD4E01E9A1F9B002052
:102FA000002100F004FF1E901F9101239846A5E721
:102FB0000CAB30221A55013F01341F2C01D8092FC8
:102FC000F6D81E981F9900F0ABFF050000F090FFA7
:102FD00002000B001E981F9900F0E9FEFA007A4BE0
:102FE0009B181A685B680A920B9300F010FF089018
:102FF000099100F0B9FF060000F076FF02000B0017
:103000000898099900F0D3FE0890099100226F4BAF
:1030100000F056FF00282ED00136300000F064FF8B
:1030200002000B000A980B9900F03AFF002801D02B
:1030300001350026002F2CD1280000F059FF020096
:103040000B001E981F9900F0B2FE06000F00002230
:103050005E4B00F01FFF002846D100225B4B300082
:10306000390000F02DFF00283ED1EB073CD501359B
:103070003AE0062746E70022544B0898099900F0E9
:1030800009FF0028D6D1002E01D0F307D2D5013692
:10309000D0E7AA461F2C11D8013F0A21300000F0CA
:1030A0004BFC651C30310CAB19550A21300000F087
:1030B00043FC092E0ED906002C00EBE755461F2CC9
:1030C0000CD87B1E002F09D00CAA302111551F00EF
:1030D0000134F4E72B0055461C00F0E71F2C03D801
:1030E0000CAB2E221A5501341F2C10D80A212800AF
:1030F00000F0FAFB661C30310CAB19550A21280090
:1031000000F0F2FB051E01D03400EDE7340003238C
:10311000229A1340012B1CD01F2C06D84346002BAB
:1031200032D00CAB2D221A550134229B0393219BE4
:10313000029301940CAB00934B465A4607990698AC
:10314000FFF7E2FA15B0F0BCBB46B246A946A0466E
:10315000F0BD219B002B13D04346002B02D10C3332
:1031600013420FD0219B013B2193190003E00CABCC
:1031700030221A5501348C42CED21F2CF7D9CBE71E
:103180002199F8E72199F6E7229B5B0704D50CAB60
:103190002B221A550134C8E7229B1B07C5D50CAB5F
:1031A00020221A550134C0E7FFFFEFFFFFFFEF7F3A
:1031B00065CDCD4165CDCDC1687E01106C7E01101D
:1031C000607E01105C7E0110588001100000E03F1D
:1031D000F0B5DE4657464E464546E0B593B08246CA
:1031E0008B4690461193002900D1EBE2002755460B
:1031F000119B1878002800D1E7E2252809D07C1C13
:1032000043463A005946A847119B013311932700C2
:10321000EEE7013311930024119A11780B00203B43
:10322000D8B2102803D88300D048C3589F460B005B
:10323000303BDBB2092B2CD92A292FD000230A934B
:10324000119B1A782E2A39D000239A46119A1378A6
:10325000683BD9B2122976D88B00C549CB589F4616
:1032600001231C4301321192D6E702231C43013291
:103270001192D1E704231C4301321192CCE70823B9
:103280001C4301321192C7E710231C4301321192F3
:10329000C2E711A8FFF726FA0A90D1E71C9B1A1D76
:1032A0001C921868002804DB0A90119B01331193CB
:1032B000C6E702231C4343420A93F6E78022D2006A
:1032C00014435A1C11925A781300303BDBB2092B7D
:1032D00004D92A2A07D000239A46B7E711A8FFF796
:1032E00001FA8246B2E71C9B1A1D1C92186800283E
:1032F00004DB8246119B01331193A7E70020F8E716
:1033000080235B002343511C119152786C2A01D019
:103310001C0018E0C0239B001C430131119112E0F6
:1033200080232343511C11915278682A01D01C003C
:1033300009E0C0231C430131119104E080235B00AC
:103340001C4301321192119B18780300253BDAB21D
:10335000532A00D92CE29300864AD3589F468023F3
:103360009B001C4301321192EDE780235B001C435C
:1033700001321192E7E7782809D0582838D06F2811
:1033800038D0622838D010239C430A2600E010264B
:10339000582833D0692803D0642801D00C229443E4
:1033A000630501D50122944369282AD0642828D0D6
:1033B000A30500D59FE0E30500D5B8E0630600D47F
:1033C000CAE01C9A111D1C911168FF220A40059445
:1033D0000A9B0493534603930296002301930092A1
:1033E00043463A0059462800FFF76EFA070027E0E7
:1033F0001026CDE70826CBE70226C9E72022144392
:10340000C8E7A30520D4E30550D4630666D51C9A0B
:10341000111D1C911168FF220A40D317D118594081
:1034200005940A9B0493534603930296D20F01928C
:10343000009143463A0059462800FFF745FA070035
:10344000119B01331193D3E61C9BDA1D07218A439C
:10345000110008311C91116853689C46DB170C93CE
:103460000D930C9A0D9B100048400E9062465340FD
:103470000F930E980F990C9A0D9B801A99410E90FC
:103480000F9108940A9B07935346069304960023D2
:1034900005936346DA0F02920090019143463A0089
:1034A00059462800FFF76EFA0700C9E71C9A111D5C
:1034B0001C911268D317D118594005940A9B0493A4
:1034C000534603930296D20F0192009143463A006D
:1034D00059462800FFF7F8F90700B1E7230605D59C
:1034E0001C9A111D1C910023D25E96E71C9A111D97
:1034F0001C91126891E71C9BDA1D07218A43110079
:1035000008311C9108940A9B07935346069304962E
:103510000023059302931368546800930194434673
:103520003A0059462800FFF72DFA070088E71C9A51
:10353000111D1C9105940A9B049353460393029614
:10354000002301931368009343463A00594628002C
:10355000FFF7BAF9070073E723060DD51C9A111D72
:103560001C9112681204120C31E7C046747E0110DF
:10357000B87E0110047F01101C9A111D1C91126865
:1035800025E746281AD01C9B0733072293431A00CD
:1035900008321C9204940A9A0392524602925C6882
:1035A0001B680093019443463A0059462800FFF7F0
:1035B00065FC0700119B0133119319E620231C437E
:1035C000E1E7672801D0472802D180231B011C4373
:1035D000452801D0472801D120231C431C9B0733D9
:1035E000072293431A0008321C9204940A9A039209
:1035F000524602925C681B680093019443463A006D
:1036000059462800FFF730FA0700119B0133119348
:10361000EEE502231A002240924623421FD00124E5
:103620001C9B1A1D1C927A1C9146187843463A003E
:103630005946A8475346002B16D1119B01331193CD
:103640004F46D5E5561C434659462020B84723002F
:1036500032005C1C9D42F5D83D001700E0E70123D5
:103660003A002F000A9DF4E74A46A9460A9D06E063
:10367000571C434659462020C84734003A00661C70
:10368000A542F5D84D469146D7E71C9B1A1D1C92C2
:103690001B6899465346002B00D1013B4E4601E082
:1036A000013613003278002A02D05A1E002BF7D1BF
:1036B0004B46F21A10928023DB0026001E401C426B
:1036C00003D0524501D95346109302231A002240D9
:1036D0000B92234205D03A0037004C46A946554686
:1036E00020E03A00109B5F46B3462E0006E0551CD2
:1036F000434639002020B04723002A005C1C0A9969
:103700009942F4D835005E46BB46109437004C46CB
:10371000A946554606E01D000134561C434659464D
:10372000C84732002078002804D0002FF4D06B1E48
:10373000002DF0D117004D460B9B002B03D1119BA0
:103740000133119354E50A9F109B06E0561C434633
:1037500059462020A847230032005C1C9F42F5D820
:103760001700ECE721231C431C9B1A1D1C921B68AD
:103770000093059408230493534603931023029364
:103780000023019343463A0059462800FFF79CF86E
:103790000700119B013311932AE57C1C43463A0034
:1037A00059462520A847119B0133119327001FE597
:1037B0007C1C43463A005946A847119B013311939C
:1037C000270015E50A4B9A4610E5AA46474502D35D
:1037D00043465A1E00E03A00434659460020D0476F
:1037E000380013B0F0BCBB46B246A946A046F0BDB7
:1037F000D52600100EB410B585B0010007AC08CC7A
:1038000003940122009452420348FFF7E1FC05B003
:1038100010BC08BC03B01847CD2600100CB410B57E
:1038200084B00A0006AC08CC03940094010004485C
:10383000FFF7CEFC04B010BC08BC02B01847C0466D
:10384000CD26001000B583B0009313000A000100DC
:103850000248FFF7BDFC03B000BDC046CD260010F6
:1038600000B585B0029003910121009313004A42F4
:1038700002A90248FFF7ACFC05B000BDD726001036
:1038800001480421014B1847300C0020B1380010CA
:1038900010B5010018231B8814221088984710BD0A
:1038A00010B5010018231B8816221088984710BDF8
:1038B000F0B5C64600B507000E0000250123984666
:1038C00000E00135B5420AD2AC003C192068FFF790
:1038D000DFFF20600028F4D100239846F1E740463E
:1038E00080BCB846F0BD0000124A936F9B0815D209
:1038F0009066D166002905D0FFE7FFE7FFE7516F2B
:10390000106F704704B580210906C2175140002886
:1039100000D0C84313F0F0FB002104BDF0B5146ED5
:10392000556E576F166FFFF7E3FF146655665767BE
:103930001667F0BD000000D0114A936F9B0813D2A8
:1039400010665166002905D0FFE7FFE7FFE7516FDA
:10395000106F704704B5002801D00020C04313F059
:10396000CBFB002104BDC046F0B5146E556E576FF9
:10397000166FFFF7E5FF1466556657671667F0BDCB
:10398000000000D094464A4A926F9208624601D2E3
:1039900028E0C046F0B5464E346E756E776F366FD0
:1039A00000F020F89446424A146655665767166739
:1039B0006246F0BD94463E4A926F9208624601D23A
:1039C00054E0C046F0B53A4E346E756E776F366F80
:1039D00000F04CF89446364A1466556657671667E9
:1039E0006246F0BD002B24DB11D000293EDA00B581
:1039F000C943404200D1013100F038F8C943404288
:103A000000D10131DB43524200D1013300BD002A15
:103A1000EBD1002801D1002905D00020C90FC9072A
:103A200001D1C043410800B513F05EFB0022002322
:103A300000BD00B500290ADBDB43524200D101334F
:103A400000F014F8C943404200D1013100BDC94320
:103A5000404200D10131DB43524200D1013300F03A
:103A600005F8DB43524200D1013300BD002923D1C8
:103A7000002B18D1002A0CD0BC460D4F38667A6650
:103A800000210023FFE7FFE7FFE77A6F386F674603
:103A90007047002801D00748010000B513F024FB4F
:103AA0000022002300BD02000B000020002170470F
:103AB000000000D0FFFFFFFF002B00D0BFE0130C81
:103AC00028D1002AE7D080B4114F39667A66FFE723
:103AD000FFE730B4040C7B6F396F1B0423433B6654
:103AE0007A66FFE7FFE7FFE7C04684B27B6F3D6F72
:103AF0001B0423433B667A66FFE7FFE7C0460023CB
:103B00002C042D0C7A6F386F00196941B0BC7047D6
:103B1000000000D0F0B594460025140E01D1120229
:103B20000835140F01D112010435940F01D1920010
:103B30000235D40F01D152000135D40B0134254F89
:103B40007C66254C3C660E0C93B2FFE7FFE7FFE76F
:103B50003C6F6643360C7703BE467343DF0B5B0452
:103B6000C01AB941130C7343DB18C91ACE08664357
:103B7000360CB64493B273431F0F1B01C01AB941F0
:103B8000130C73431F0B1B05C01AB941860D8F021E
:103B90003E436643360C092D24DB520A7243801AD9
:103BA0007703460A6643360C16235B1BDE40DF4074
:103BB000BF1964466643821B704604350633010014
:103BC000D940A840C01900D30131A24206D2002337
:103BD000F0BD0000000000D0FFFFFFFF121B01300E
:103BE000F3D3F1E709277F1BFE406446A2B272437C
:103BF000801A00D20139220C7243130C1204821A6B
:103C000099410B007046043513370100F940A84074
:103C1000801900D30131002B02D1A2420AD2F0BD9B
:103C2000013000D30131121BFAD2013BF8D1A2427C
:103C300000D2F0BD013000D30131121BF7E7F0B51F
:103C40001C0C00D080E00CB400251C0A04D11B021F
:103C5000160E3343120208351C0B04D11B01160F3C
:103C60003343120104359C0B04D19B00960F334360
:103C700092000235DC0B02D192185B4101351C0029
:103C8000971864410134464F7C66464C3C660E0CE6
:103C9000FFE7FFE7FFE7C0463C6F6643360C77035C
:103CA000BE4697B27743C01B00D20139C01B00D279
:103CB00001399FB27743C91BC91B170C77437E0498
:103CC000FF0B801BB941CE086643360C0C2D33DB4D
:103CD000B644120B1F053A431B0B97B27743C01B28
:103CE00000D201399FB27743C91B170C77433E04BA
:103CF0003F0C801BB941860D8F023E436643292746
:103D00007F1BFE400C3D7746AF40BF1930BCA2B2CE
:103D1000ABB272437343801A9941220C7243130C65
:103D20001204801A994102000B000137001BA941BF
:103D3000F9D2781E0021F0BD0C277F1BFE4077468C
:103D40007F0BAF40FF19E0E700245D1C07D0144F44
:103D50007D663966FFE7FFE7FFE7FFE73C6F95B257
:103D60009EB265436643401BB141150C1E0C654372
:103D7000664336042F0C3E432D04401BB14199424B
:103D800004D202000B0020000021F0BD01D19042BE
:103D9000F7D3801A994101349942F2D3F6E7000033
:103DA000000000D0FFFFFFFF48404140484018B4EA
:103DB0001B4B5B68FC46019308BD04DF8340001089
:103DC00018B4174B1B68FC46019308BD00DF8D40FB
:103DD00000109446134A926F920809D2624618B4B2
:103DE0000F4BDB68FC46019308BD0CDF4543001018
:103DF0000C4AF0B5146E556E576F166F6246FFF79A
:103E0000EEFF084A1466556657671667F0BD18B48A
:103E1000034B9B68FC46019308BD08DFE941001095
:103E20006C720020000000D0FFB55040424050406E
:103E300059404B40594000E0FFB5154F4C00640D10
:103E400003D0BC4204D10C0314D80020090D09058D
:103E50005C00640D03D0BC4204D11C030AD80022CC
:103E60001B0D1B0501264B4009D44B4003D58B424B
:103E700000D18242FFBD9942FCD19042FFBD0B436D
:103E8000DB1803431343F5D0C9434918FFBD0000B5
:103E9000FF07000000B5FFF7CFFF804100BDC0461F
:103EA00000B5FFF7C9FF01D9002000BD012000BD0A
:103EB00000B5FFF7B9FF01D9002000BD012000BD0A
:103EC00000B5FFF7B1FF804100BD012040054A0069
:103ED000121804D85A00121801D800207047012087
:103EE00070470020704700000021002805D170476E
:103EF000C1174840401AFAD0C90713B5064B1B68D2
:103F000098470CBC441CA2401005120B0349091B26
:103F100009051943114310BD8C7300201F040000D4
:103F200010B54C00620D8023D218DB00D21A5B055D
:103F30007E2A10DD9E3A13DACC170903490819438B
:103F40005242D140640001341532202A05DAD040B3
:103F50000843604310BD002010BD0846604310BDFB
:103F6000C80FC018013810BD18B4044B5B6AFC467A
:103F7000019308BD24DFF544001000006C7200209E
:103F800070B513231C78012C14D0012C14DC022CE6
:103F900002DC1F4A1F4B9A641F48FFF779FC1F4B36
:103FA000186070BD99001A481A4A885001331F2BB7
:103FB000F8D9EAE70023FAE71948FFF771FC050092
:103FC0001848FFF76DFC023803789B007F2B19DD42
:103FD000802229000F4800F07FFC022CD7D1124B21
:103FE0001A88B5231B029A4209D1104B1A88104B2C
:103FF0009A4204D10F4B1A880F4B9A42C7D0002027
:10400000FEF74CFB0D4B0E4A32210E48FEF7ACFA80
:10401000494000106C7200204C3300008C7300206B
:10402000534400005346000054380000D8380000C4
:10403000494600009C38000059460000A880011045
:1040400060810110FC80011007B56046002800D196
:1040500000BE01880A0A0230DF2AFAD1C9B28208FA
:1040600004D3028840880004104300E00068024A3C
:104070005050039007BD00006C7200200FB403BCC9
:104080000CBCF0B50124E407634000E0F0B50C0D72
:10409000CF0F661E3605891B640503D3C943404212
:1040A00000D30131640D03D0661CF60A07D0E41B6F
:1040B00000207F00791C89078912803C24031D0D94
:1040C000DF0F6E1E36059B1B6D0503D3DB4352428B
:1040D00000D301336D0D03D06E1CF60A07D0ED1B23
:1040E00000227F007B1C9B079B12803D2D032F1B12
:1040F000661B58D4A446202E46DA20371400BC4054
:104100001D00BD40F24033412A4380185941CB0F76
:1041100005D0C943C0430022644250415141624628
:104120004D0D28D10D0D07D100281FD02419404175
:104130004941013A0D0DF9D0640006D3013000D396
:104140000131002C01D140084000013A0BD4941CED
:10415000E40A04D112051144DB071944F0BDD90764
:10416000204B194300E0D9070020F0BD0029DDD124
:10417000002CDBD1F0BD0132C6074008CD07284333
:104180004908002EE1D0D9E73C2E29DA203E4037FD
:104190001400BC4000D00124F24014431A00BB407C
:1041A0001C43D317ACE7AC46202F08DA20360400B6
:1041B000B4400D00B540F84039412843A5E73C2FF5
:1041C0000CDA203F40360400B44000D00124F8400F
:1041D00004430800B1400C43C117EAE7100019007E
:1041E000002494E70000F07FF0B50C0D661E360544
:1041F000891BE60A6405640D02D0651CED0A04D033
:10420000002001210905803C2403A4461C0D671EE3
:104210003F05DB1BE70A6405640D02D0651CED0A4F
:1042200004D0002201231B05803C24037740644412
:1042300097B484B296B27443070C7E43150C6F4357
:1042400080B26843361802D3012000043F183004BE
:10425000350C00197D41844688B29AB250430C0C4B
:1042600062431F0C7C438EB27E43921902D3012617
:104270003604A4191604170C3618674101BC81B224
:104280009AB25143040C62431B0C5C4380B2584306
:10429000121802D30120000424181004130C401833
:1042A00063412D185E410020474106BC88B293B29D
:1042B00058430C0C6343120C544389B251435B18AE
:1042C00002D301210904641819041A0C0918624167
:1042D0006D1856410020474118BCF902720D114378
:1042E000F0026A0D1043ED020A0D03D16D19404131
:1042F0004941013B124E9B1B7600B3420ED26D002A
:1043000007D30130002671416646354301D140088C
:1043100040001B05C918E4072144F0BD0BDA013346
:1043200006D1013004D101314F0D01D04908F2E727
:10433000E1070020F0BD013631050020EBE7000069
:10434000FF030000F0B51C0D671E3F05DB1BE70AED
:104350006405640D02D0661CF60A04D00022012315
:104360001B05803C2403D0252D060026F6432E662F
:104370001E096E66CE0FF619B44649004F0D02D0E5
:104380007E1CF60A03D000200021403F3F033E1B65
:10439000B600B444013F7F05C91B49082E6F0136A2
:1043A00076089C02950D25437543ED137543AD13B7
:1043B00001356D10F603761B0CB4CC02450D2C4371
:1043C000A2B2B3B25A43270C7B43350C6F43A4B25D
:1043D0006C431B1902D3012424043F191C041D0C37
:1043E000A4187D4124196D41009A91B2ACB2614389
:1043F000170C7C432B0C5F4392B25A43A41802D390
:1044000001221204BF182204230C52187B41019C84
:104410006C431B19520ED9010A434401A01A81B200
:10442000B2B2514303145A43360C734387B27743F5
:10443000D617D21900277E4136049B191704160C93
:104440007F185E417316ED18F30100268033754125
:10445000A90F06D16400690AE8055B0A184309D26E
:104460002FE00422944480337541A90AA8059B0AD1
:10447000184326D3404149412404009A019B0D0072
:104480005543641B4343E41A95B286B27543170C37
:104490007E43030C5F4392B25A43B61802D3012203
:1044A0001204BF183204330C52197B4152429C4112
:1044B000002C02D40022013051414008CA071043A9
:1044C000490802B06246D7079210084BD218084B31
:1044D0009A4203D212058918C919F0BD0020002A9A
:1044E00001DC3900F0BD01331905F5E7FD030000DB
:1044F000FE070000002200B5203200F004F808009A
:1045000000BD000000220B150AD410B5944600F03F
:1045100031F81414013400DA0021CB17144C204771
:104520000020002170476244343A0CD40C2A07DA88
:1045300004009140904052422032D440214310BDAB
:10454000D843D94310BD203207D40C469440524280
:1045500020321141D040204310BD0800C91720323D
:1045600003D452422032104110BD1800190010BD72
:10457000274500100A0DCC0F531E1B05C91A520502
:1045800003D3C943404200D30131520D03D0531C21
:10459000DB0A07D0121B00206400611C8907891206
:1045A000803A1203014BD21A70470000FF0300004B
:1045B00051434343C9188C46110C83B24B4310B48A
:1045C000040C614392B280B2504362431C041B0C42
:1045D000001910BC59411304120CC0185141614418
:1045E0007047000048404140484000239C46114B22
:1045F0005B68184700239C460E4B1B6818470E4A01
:10460000936F9B0804D200239C460A4BDB68184733
:10461000F0B5146E556E576F166FFFF7F4FF064A2C
:104620001466556657671667F0BD00239C46014B1C
:104630009B68184790730020000000D0491A00289A
:1046400008D1084670470000C10FC90700D5404295
:10465000002817D0F44603B40B4B1B68984706BCE0
:1046600081409E384042803107D20B0607D0490076
:10467000490AC0051043084360470130F8E7490A7A
:104680008902F5E7704700008C73002041000A0E94
:1046900080231B067E2A0BDD9E3A0BDAC1174002EF
:1046A000400818435242D040490001314843704706
:1046B00000207047C00FC01801387047C0420DD3AA
:1046C00000B540004008002100F012F8002801D495
:1046D000404200BD8020000600BD0000034BDB69A6
:1046E000FC4618471CDF3148001000009073002082
:1046F00000239C46014B5B6A184700009073002022
:1047000070B513231D782A48FFF7CAF80400012D5D
:1047100011D0012D09DDA31E1B789B007F2B40DDEE
:1047200080222100234800F0D7F82348FFF7B0F893
:10473000224B186070BD542201001E4800F0CCF8D6
:104740001F4B1A881F4B9A421CD1A7239B011A8822
:104750001D4B9A4216D11D4B1A881D4B9A4211D1FE
:104760001C4B1A8894239B019A420BD11A4B1A882E
:104770001A4B9A4206D11A4B1A681A4B9A4201D127
:10478000152307E01848FDF789FF99001748094AE3
:10479000885001331F2BF8D9144A064B1A62DA618C
:1047A000B7E7134B134A42211348FDF7DDFEC0461D
:1047B00053460000907300204C3300008C7300209F
:1047C000EE290000C40F0000C20D0000962B00006F
:1047D000C0B50000182B0000CC2A000010B5000066
:1047E000FC2C000051ED8764847D0110FD47001012
:1047F000748101100C820110A881011007B5604678
:10480000002800D100BE01880A0A0230DF2AFAD14E
:10481000C9B2820804D3028840880004104300E033
:104820000068024A5050039007BD000090730020BA
:104830000021C2158032803201D0024A1047002088
:1048400070470000CD2A000010B5040011F0CCF92B
:10485000002804D00419034B9C4200D810BD024824
:10486000FDF71CFF000004202082011010B50C0091
:1048700011F006F9002804D00419034B9C4200D81B
:1048800010BD0248FDF70AFF00000420208201103D
:1048900010B50C0011F02CFD002804D00419034BB6
:1048A0009C4200D810BD0248FDF7F8FE000004202D
:1048B0002082011010B511F0A1F910BD01480421AA
:1048C000014B1847400C0020B1380010014B1B6809
:1048D00018470000400C0020014B5B68184700009F
:1048E000400C002010B50300080011001B68984719
:1048F00010BD10B50300080011001B68984710BDDB
:1049000070B505000368002B16D00C4B1C6805E041
:10491000290004C92000FFF7ECFF2469002C09D00E
:104920002368002BF9D0064B1B68002BF0D0A34264
:10493000F3D1EDE700232B6070BDC046746D0020FD
:10494000806D002070B505000C000B68802B05D031
:1049500021684B1C23606418257170BD0800FFF7A7
:10496000CFFFF5E7F0B583B007000E00009201938A
:1049700028E0A368002B04D03100380098470028B5
:1049800027DC2469002C06D0134B1D68002DF0D0C5
:10499000A542F6D1EDE70099019A104B5B6A9A4265
:1049A00009D80E48806A88420FD29A4201D001236A
:1049B00002E0002300E00023002B08D101200021A9
:1049C000FDF770F8064B1C68DCE70123F4E70120D3
:1049D000404203B0F0BDC046806D0020004005405D
:1049E000746D002010B5FDF73DF802000B1E0BDBC7
:1049F0000D48002112184B41002B0BDB002B0DDB67
:104A00000A4812F0A1FB10BD094B0A4A3F210A488F
:104A1000FDF7AAFD01225242084BEFE7044B054A7D
:104A20003F210548FDF7A0FD40420F00FC1A002081
:104A30004C7501100C83011068750110FFFFFF7F9A
:104A400010B5024812F048FB10BDC046FC1A002009
:104A5000F0B5CE46474680B583B006000D009046BF
:104A60001C00FFF7BFFF81466B1C05D0002C08D04F
:104A7000194F1A4B1C6807E0300011F0ADFE05001D
:104A8000F4E7174FF5E72469002C17D02368002BB3
:104A9000F9D0144B1B68002B01D0A342F3D12A009C
:104AA00031002000B8474346002BECD06B46D91D9F
:104AB0000A230B7001222000B847E4E74B46002B85
:104AC00007D16B1E9D41E8B203B0C0BCB946B046E9
:104AD000F0BDFFF7B5FFF4E7E5480010746D002066
:104AE000F3480010806D002010B582B004006B46C2
:104AF000D81D0470002300220121FFF7A9FF200028
:104B000002B010BD094A01E010331A001368002BEF
:104B100008D08342F8D1002907D10369136000232C
:104B2000036102E0002900D010607047746D00201E
:104B300010B5064B1C6801E098472469002C03D08F
:104B40006368002BF8D1F8E710BDC046746D0020F3
:104B500070B5050011F040FE0400002301220100A1
:104B60002800FFF775FFFFF7E3FF200070BD00008E
:104B700070B5A2B004000E00FFF734FF050000235B
:104B800001933300220001A90848FEF769FE0400E2
:104B900001A8FFF7B5FEFFF7CBFF002D02D12000E3
:104BA00022B070BDFFF74CFFF9E7C0464549001041
:104BB0000FB400B583B004A901C90191FFF7D8FF74
:104BC00003B008BC04B0184710B500F077F910BD69
:104BD00030B583B004000025FCF744FF02000B1E33
:104BE00010DB12196B41002B12DB002B14DB0121AF
:104BF00001A8FFF7B7FE002802DB13D001AB18783D
:104C000003B030BD0B4B0C4A3F210C48FDF7ACFC08
:104C1000012252420A4BE8E7064B074A3F21074868
:104C2000FDF7A2FC9E21074B074A49000748FDF704
:104C30009BFCC0464C7501100C8301106875011077
:104C4000FFFFFF7F88780110F88201109C8201101D
:104C500070470000014B00221A707047B8750020A1
:104C60004B79FF2B0CD18B79002B0BD1CB79012BFE
:104C70000AD1082A0AD98A78054B1A70092000E05F
:104C8000002070470020FCE70020FAE70020F8E74A
:104C9000B87500200120704770B504000D0003486E
:104CA000FEF7F6FD0300290020009847554200005A
:104CB00010B5012926D1117953791B020B431249F2
:104CC00009788B4201D000201DE05378012B03D0DE
:104CD000022B10D0002016E09178D3781B021943E4
:104CE000DB0506D54B0A012098407F231940FFF7CA
:104CF000D3FF0020F9E7642200210020FDF7DAFB52
:104D0000012000E0012010BDB875002001230370D0
:104D1000004870472483011010B50B7848780002D2
:104D200018438A7812041043CB781B06034396225B
:104D3000D200934200D010BD00210800FFF7ACFF65
:104D4000024B1860024B19607047C046EC680020A7
:104D5000F068002010B5024B1878FBF76FFD10BD0E
:104D6000B975002070B5134B1B68002B1DD0114B7B
:104D70001968EFF3108372B60A68002AFCD0BFF3FB
:104D80005F8F0C494B6000220B4802700968BFF32B
:104D90005F8F0A6083F3108800240025074B187882
:104DA000FBF74CFD2000290070BDFA24A40000256B
:104DB000F4E7C04620720020BA750020B9750020C3
:104DC00010B584B000212D4812F09EF900283AD188
:104DD0002B4B1B68002B3ED0294B1968EFF3108238
:104DE00072B60B68002BFCD0BFF35F8F24494A607A
:104DF0002448037801246340DBB20124047009686D
:104E0000BFF35F8F0020086082F31088002B22D050
:104E1000FCF782FB0400FCF725FE02000B1E1CDBE6
:104E2000FA208000002112184B41002B1BDB002BC5
:104E30001DDB012102910021019113490091200005
:104E4000FCF780FB07E001200021404201F0F0F870
:104E50000A4812F041F904B010BD0C4B0C4A3F2136
:104E60000C48FDF781FB012252420B4BDFE7074B59
:104E7000074A3F210748FDF777FBC046AC74002086
:104E800020720020BA750020654D00104C7501108D
:104E9000D083011068750110FFFFFF7F10B5054B2F
:104EA0001868002804D0044B1968002200F0E6FDC1
:104EB00010BDC046EC680020F068002010B584B03A
:104EC000D0231B061C68FCF727FBFCF76BFCA042F9
:104ED0002AD1324B1B7801F093FD3148FBF78CFF50
:104EE0000120FBF76DFFC0B22E4C20702E49FBF75E
:104EF000C7FC20780121FBF799FC0520FBF7AEFCED
:104F0000041E17D0002229490520FBF7E3FCFBF71C
:104F1000FBFB01002648FBF78BFF01212548FFF72B
:104F2000F1FD200004B010BD234B244AB2212448D7
:104F3000FDF71AFBFCF7F0FA0400FCF793FD020002
:104F40000B1E1BDBFA208000002112184B41002BA6
:104F50001ADB002B1CDB0121029100210191194970
:104F600000912000FCF7EEFAC443E40F0822002170
:104F70000F48FFF7ABFC002CD3D0CEE7124B134AFF
:104F80003F211348FDF7F0FA01225242114BE0E7AE
:104F90000D4B0E4A3F210E48FDF7E6FA349C0110F6
:104FA000AC740020B9750020C14D0010554D0010A3
:104FB00020720020500C0020E4730110C083011007
:104FC0003C830110654D00104C750110D083011019
:104FD00068750110FFFFFF7F10B5002001F030FA67
:104FE00010BD000070B505000C00FFF7F5FF0028AC
:104FF00045D0002001F046FA002843D0FCF732FDEE
:1050000002000B1E21DB2248002112184B41002B0D
:1050100021DB002B23DB1F4812F096F8002834D048
:10502000FFF7DAFF002804D0002001F02BFA002857
:105030001BD101200021404200F0FAFF032464420A
:10504000144812F049F8200070BD134B134A3F2159
:105050001348FDF789FA01225242124BD9E70E4B51
:105060000E4A3F210E48FDF77FFA2200290000205A
:1050700001F014FA041EE3D103246442E0E70324A0
:105080006442E0E703246442DDE703246442DAE794
:1050900040420F00AC7400204C750110D083011009
:1050A00068750110FFFFFF7FF0B5C64600B580466A
:1050B0000C00FCF7D7FC02000B1E0FDB3748002169
:1050C00012184B41002B0FDB002B11DB344812F080
:1050D0003BF8002812D180BCB846F0BD314B324AB3
:1050E0003F213248FDF740FA01225242304BEBE7B4
:1050F0002C4B2D4A3F212D48FDF736FAFFF76CFF68
:10510000002849D12B4B0020002118605960244809
:1051100011F0E2FFDFE701200021404200F088FFAC
:10512000002001F0CFF9FFF757FF0028EFD0002053
:1051300001F040FA002820D0A542E8DA661B0020E2
:1051400001F038FA0200864200DC3200002AE2D088
:1051500043465919002001F011FA060001200021F0
:10516000404200F065FF002001F0ACF9AD19FCF7FA
:1051700079FC104B18605960DEE7FCF773FC0D4BAF
:105180001E685F680C4A002392197B419942BED881
:10519000D2D19042D0D9BAE70025CDE740420F00E6
:1051A000AC7400204C750110D0830110687501109B
:1051B000FFFFFF7FF861002020A107000048704733
:1051C00068840110004870471484011010B5040071
:1051D000154B1B78002B0ED0002C11D1134B144A09
:1051E0005A80012301335B001BB2C022920013439B
:1051F0000E48038010BD11210B4800F025F8EBE7A5
:10520000052C0ED8A4000B4BE4580023122BE9D830
:10521000E25C002AE6D00133590004484252DBB276
:10522000F4E70020E6E7C0464C750020406D002002
:10523000090400007C84011010B5024800F034F825
:1052400010BDC0464872002010B5002901D00023CF
:105250000AE0114B114A1F311148FDF785F900246E
:105260000DE03732C25401334A1E9A420FD90F2B38
:105270000DD85A080B4CA25CDC07F0D40424224160
:1052800014000F222240092AEBDC3032EAE7C01872
:105290000023037010BDC0469484011000850110E6
:1052A0009C8401104872002070B588B0040004ADE1
:1052B000002604960922002105A8FFF707FB0096A7
:1052C0000922002101A8FFF701FB4B232B700D22BF
:1052D0006946280011F0F8FE002304E05A1D6946D3
:1052E0008A5CE2540133072BF8DD08B070BD000082
:1052F00002007F201040D209400080184001014B7D
:10530000C0187047D86D002010B5038B3F333F2283
:105310009343022915D0124C2268C260D31823602F
:105320009C0610D10F4C6240634080246401A3426C
:105330000FD88906114380231B061943436819605F
:1053400010BD5B00E7E7084B084A54210848FDF709
:105350000BF9084B054A56210548FDF705F9C046EB
:105360000872002000001050A8860110DC87011090
:10537000D886011048870110F8B505000E0014000A
:10538000FFF7B6FF7F232B40EF0985707A427A4101
:1053900042700022C2700683C476012F0DD0DA005D
:1053A00012498C4662448260826800211160002BA1
:1053B00009D143600E4BC360F8BDDA000D498C463D
:1053C00062448260F0E7012F09D0013BDB000A4A0A
:1053D0009446634443602100FFF796FFECE7013BEE
:1053E000DB00064A944663444360F4E784001050AF
:1053F00000011050800010500C0010500800105098
:1054000070B50C001500FFF773FF2A00210000F0B3
:105410000DF970BD10B5002804D101210520FBF75E
:1054200005FA10BDD521034B034A49000348FDF797
:105430009BF8C04690870110CC870110D8860110D8
:1054400010B5002805D1002200218020FFF7D8FFE9
:1054500010BDDB21024B034A49000348FDF784F8E5
:1054600090870110BC870110D8860110024B802262
:105470005202DA647047C0460020115070B5041E15
:1054800026D100F0ADF8164D0C23AB67FF2215496D
:105490000520FBF71FFA402200211348FFF716FAF8
:1054A000002240210020FFF767FF002240218020DA
:1054B000FFF762FF11F040FE01232B6480239B0560
:1054C000EB649023094AEA502000FFF7CFFF70BD3C
:1054D0008621074B074AFF310748FDF745F8C046CC
:1054E00000001150A1040020D86D002010D0010050
:1054F00090870110F0870110D88601100B785B06A9
:1055000002D14B78052B00D070478A78014B1A6086
:10551000FAE7C0460000115010B50C0000280DD16C
:10552000097963791B020B435B05590DE2789207F9
:10553000920FA078FFF720FF012010BDFC21034B44
:10554000034AFF310348FDF70FF8C046908701106A
:10555000AC870110D886011010B511F0EDFD10BD1B
:1055600010B50400080011001A00002C03D1FFF749
:1055700047FF012010BD034B034A04490448FCF7D0
:10558000F3FFC046908701109C8701100A020000BB
:10559000D886011010B508004B0605D1CB09012BA8
:1055A0000AD00222054B9A66FFF7A2FE8022120162
:1055B000002111F0E9FD10BD0122F3E70020115098
:1055C00010B508004B0600D110BDFFF791FE002377
:1055D000C3700022014911F0D7FDF5E7FFF7FFFF87
:1055E00010B580235B040C4A13600C4A13600C4B0B
:1055F0009A6880235B049343F9D10A4C9C220021D2
:105600002000FFF763F98022520100210648FFF7CE
:105610005DF90923636710BD00E0004000F0004021
:1056200000C00040000011500000105070B5040090
:105630000D001600837E002B17D1A6820023E38283
:105640000133A3762561200011F086FD002804D0E7
:10565000094A902380218902D150200011F09CFD3D
:10566000002805D00123237770BD11F085FDE4E704
:10567000200011F079FDF7E70020115070B505000A
:1056800000240CE063001B19DA00184B1B689B1800
:10569000002B2AD05B68280098470134E4B2144BF1
:1056A0001B78A34210D3134A002A0BD0A342E9D897
:1056B000E31ADBB2002B18D15A00D218D2000E4BDD
:1056C0009B18E5E72300F5E70C4C5322002120004E
:1056D000FFF7FCF8E01C1022FF21FFF7F7F820008D
:1056E00013302022FF21FFF7F1F870BD98630020EE
:1056F000B07500200D4D00109C890110C06600207F
:1057000010B5FFF7BBFF00F0F1FD10BD70B505004F
:105710000C001600C86800F0F3FDE36832000121B8
:105720002800984770BD0000F0B5DE4657464E464B
:10573000C0B582B000900139C8B2FFF743FD002820
:1057400000D18CE043789A46022B00D089E0C579DD
:105750006A11013B4B491A4014010A781027BA43D9
:1057600022430A70AD112B405B01D2B22024A24328
:1057700013430B70060009368278C4782402144360
:105780000419A64264D273780B2B09D001239B46DF
:105790007378042B6CD1A31B9BB29946002525E09E
:1057A000F3789B463378F618F2E76F007F19FB0019
:1057B000354A1768FF182BE02B0022E0BA68334BFC
:1057C0009A4234D1D34632E02E482B00019F3A0052
:1057D0003100133001F0A2F9BC4666442C4B1B7813
:1057E000AB42CED200203DE00135EDB2284B1B7814
:1057F000AB42F3D3274A002ADED0AB42D5D8EB1A0E
:10580000DBB2002B36D15F00FB18DB00224FFF1804
:10581000002F31D04A4631000098BB68984701906C
:105820000828E1D98145DFD35B46012BC6D0002291
:105830009345C9D9B3789B18DBB21249C918C97806
:10584000FF291BD10F49CB18DD700132D2B2EFE72F
:10585000124B002B14D000E000BF012002E000201A
:1058600000E0002002B0E0BCBB46B246A946F0BD55
:105870000020F7E70020F5E70020F3E70020F1E73C
:105880000120EFE7C066002098630020D166001079
:10589000B07500200D4D00109C8901100000000023
:1058A00070B505000C00CB7888780F2B50D89A0083
:1058B0002E498A589746FFF781FC020012232100E7
:1058C000280000F0D9FC44E0294B002B42D000E036
:1058D00000BF021E40D08178C3781B020B43210019
:1058E000280000F0C9FC34E0022B09D0214B002B2A
:1058F00034D000E000BF0200002A05D1002028E0DB
:10590000FFF760FC0200F7E79178D3781B020B43A6
:105910002100280000F0B0FC1BE023796179090226
:105920001943FFF753FC021E1AD003782100280008
:1059300000F0A2FC0DE0104B002B13D000E000BFE4
:10594000021E11D003782100280000F095FC00E031
:10595000002070BD0020FCE70020FAE70020F8E7F7
:105960000020F6E70020F4E70020F2E7108901109C
:10597000000000000000000000000000024B58780A
:10598000431E9841C0B27047C0660020024B187891
:105990004007C00F7047C046C0660020034B187810
:1059A000FF38431E9841C0B27047C046880C0020A3
:1059B00070B50400FFF7F2FF061E01D0300070BD85
:1059C000532200212348FEF781FF234D2800FBF7D7
:1059D00013FA224B1D60224D28001430FBF732FAD7
:1059E000280001F0F0FB1F4B1D601F4B002B04D063
:1059F0001E48FFF78BF91E4B186000250BE06B006B
:105A00005B19DA001A4B1B689B18002BD6D01B6859
:105A100098470135EDB2154B1B78AB4210D3124AB3
:105A2000002A0BD0AB42EAD8EB1ADBB2002BC5D16F
:105A30005A00D218D2000F4B9B18E6E72B00F5E76F
:105A40000D4B1C702000FFF719FD2000FFF7E2FC52
:105A50000126B3E7C06600207866002014670020A6
:105A60006C0C0020186700200D4D0010B075002050
:105A7000986300209C890110880C0020F0B585B047
:105A800007000E00150001AC0C2200212000FEF7DB
:105A90001DFF08236370029703962900200011F070
:105AA00043FB05B0F0BD000070B50C00094B1D783C
:105AB0008B7870221A4201D0002070BD064B997875
:105AC000200000F0EFFF0028F7D021002800FFF7AA
:105AD00023FDF2E7880C0020C0660020F8B5CE4612
